S01C000057617465724C6576656C5F75315F6472697665722E737265631D
S11300000C943E000C945B000C945B000C945B001D
S11300100C945B000C945B000C9462000C945B00E9
S11300200C945B000C945B000C945B000C945B00E0
S11300300C945B000C945B000C945B000C945B00D0
S11300400C945B000C945B000C945B000C945B00C0
S11300500C9462020C945B000C945B000C945B00A7
S11300600C94B0030C945B000C945B000C945B0048
S11300700C945B000C945B000C945B0011241FBE79
S1130080CFEFCDBFDFE3DEBF18E3A0E0B8E3E6E1E6
S1130090FAE102C005900D92AC3BB107D9F729E310
S11300A0ACEBB8E301C01D92A23BB207E1F70E949A
S11300B0EE000C94060D0C9400000E94D5020E94E0
S11300C07C0108951F920F920FB60F9211242F9363
S11300D03F934F935F936F937F938F939F93AF93CC
S11300E0BF93EF93FF930E94320282E08093430117
S11300F0FF91EF91BF91AF919F918F917F916F91FC
S11301005F914F913F912F910F900FBE0F901F90D1
S113011018958091DF388F5F8093DF380895FFCF83
S11301200E9409038093CC380E9413038091DC3829
S11301308F5F8093DC3808950E9409038093003810
S11301400E9413038091E0388F5F8093E038089514
S11301508091BC388C3010F01092BC38E091BC38DF
S1130160F0E0E353F74C80810E940C038091DB386C
S11301708F5F8093DB380895CF93DF931092D93843
S11301801092DA3880E090E01092BD380E94530259
S113019080788093BD38882359F0C091D938D091A4
S11301A0DA38CE010E944602C353D74C888307C075
S11301B0E091D938F091DA38E353F74C108280910A
S11301C0D9389091DA3801968093D9389093DA38F7
S11301D08C309105CCF2DF91CF9108950E945D009F
S11301E0789488EA90E00E9427038CE990E00E94CA
S11301F0340380E990E00E94410389E890E00E9482
S11302004E038FE890E00E945B038FE890E00E9429
S1130210D4030E94030378940E94F6018091C138AC
S1130220813031F41092BE381092BF380E94BC0065
S113023080E395E70197F1F7EFCFEFE3F9E38081EE
S1130240826080830895E0911938F0911A38808192
S1130250882344F4E0913D39F0913E3980818460F3
S11302608083089581E08093C1380895882324F41D
S113027081E08093C038089586FD03C01092C03891
S113028008958F708E5F8093C03808950F931F93E5
S1130290CF93DF9385E299E30E940A0CC0E0D0E09B
S11302A0BE018FE498E30E947A0CBE018FE498E3C8
S11302B00E94990C2196CC30D10591F709EE18E3F0
S11302C0C0E0A8016C2F89E198E30E945C04CF5F31
S11302D00B5F1F4FCC30A9F7DF91CF911F910F9186
S11302E00895E0E4F1E0918192FDFDCF90E08093E8
S11302F04A0190934B01089580E20E947101E1E567
S1130300F4E08081877F8083E2E5F4E08081877F69
S11303108083E3E5F4E08081877F8083E0E5F4E097
S11303208081877F8083E0E3F4E08081877F80831E
S1130330E1E3F4E08081877F8083E4E3F4E080817B
S1130340877F8083E5E3F4E08081877F8083E7E132
S1130350F4E08081877F8083E6E1F4E08081877F19
S11303608083E5E1F4E08081877F8083E4E1F4E049
S11303708081877F8083EFE3F9E3108285E198E34E
S11303808183928381E198E38383948389E098E372
S1130390858396838DE098E38783908781E098E353
S11303A08187928785E098E38387948786E49AE03F
S11303B08587968786E491E08787908B86E391E032
S11303C0818B928B8DE191E0838B948B158A168AB5
S11303D083E291E0878B908FCF010E9441080E94B5
S11303E03C0880933D3990933E390895E0913D391E
S11303F0F0913E39808180FF0CC080E00E94A0080B
S1130400811107C0E0913D39F0913E3980818E7FA2
S11304108083E0913D39F0913E39808181FF21C094
S11304200E94F008811103C00E94F80803C080E80C
S11304300E943601E0913D39F0913E3980818D7FF3
S11304408083E0913D39F0913E39808182FF09C07B
S113045081608083E0913D39F0913E3980818B7FCA
S1130460808308958091E8388F5F843118F48093F5
S1130470E83808951092E838EFE3F9E38081816069
S1130480808384E190E00E94510408959C01220F2E
S1130490331F220F331F820F931FFC01E751F74CC8
S11304A08181928108959C01220F331F820F931F33
S11304B0880F991FE0911D38F0911E38E80FF91F3D
S11304C0808108951F920F920FB60F9211242F93DB
S11304D03F934F935F936F937F938F939F93AF93C8
S11304E0BF93EF93FF930E94DA0CFF91EF91BF91BA
S11304F0AF919F918F917F916F915F914F913F91B8
S11305002F910F900FBE0F901F90189580E00895C3
S113051080E00895789480E00895E0E1F4E080813B
S113052088608193E83184E0F807C9F7E0E3F4E0F8
S1130530808188608193E83384E0F807C9F7E0E5B7
S1130540F4E0808188608193E83584E0F807C9F796
S11305500895029A0A98E2E1F4E08081877F80831B
S113056080818F7780838081887F8083A0E0B2E060
S113057011968C911197806111968C931197019A21
S11305800998E1E1F4E08081877F808380818F771F
S113059080838081887F808311968C9111978061FC
S11305A011968C930E94E40208950E948D020E9489
S11305B088020E94D9030E948A020E94E6030E94D4
S11305C0A9020E9486020895E0E1F8E080EF8487A2
S11305D081EE81871092A2391092A3391092A43926
S11305E01092A5391092A6391092A7391092A03909
S11305F01092A1391092AA391092AB391092A839ED
S11306001092A9390895E0E1F8E08185816081873D
S1130610089580911D080895E0E1F8E085878285BA
S113062083608287089583E080931A080895E0E147
S1130630F8E08385806C838782E082870895E09167
S1130640A439F091A539309709F00995089580935C
S1130650A4399093A5390895E091A239F091A33972
S1130660309709F0099508958093A2399093A3399E
S11306700895E091A639F091A739309709F00995CA
S113068008958093A6399093A7390895E091A039ED
S1130690F091A139309709F0099508958093A03914
S11306A09093A1390895E091AA39F091AB3930972C
S11306B009F0099508958093AA399093AB39089568
S11306C0E091A839F091A939309709F00995089576
S11306D080911B0883FF03C00E94530308958091F7
S11306E01B0882FF03C00E946003089580911B08C9
S11306F086FF10C080911B0880FF0CC00E94390344
S113070080911B0881FF2BC00E941F0383E080930C
S11307101A08089580911B088823A4F480911B086B
S113072081FF0DC080911B0884FD06C00E941F0339
S113073083E080931A0808950E94170308950E9485
S11307402C03089580911B0886FF09C080911B0823
S113075080FD05C00E94460382E080931A08089534
S11307601F920F920FB60F9211242F933F934F9322
S11307705F936F937F938F939F93AF93BF93EF9305
S1130780FF930E946803FF91EF91BF91AF919F91F6
S11307908F917F916F915F914F913F912F910F9026
S11307A00FBE0F901F9018958093A8399093A93984
S11307B00895E0E4F1E081818111FDCFE0E4F1E00E
S11307C081E8808382E0828380E0089580E0089558
S11307D0CF92DF92FF920F931F93CF93DF93EC019D
S11307E0AE81BF81EB01CC0FDD1FC60FD71FCA0F2F
S11307F0DB1FFA80FC0144815581E6E0E69F90010D
S1130800E79F300D11248A01020F131FF801228182
S11308103381F90121813281F80104811581201B82
S1130820310BE8812E1B3109EC01EA81FB81008147
S11308301181FA0140E050E04017510739F14617A1
S11308405707F9F012968C911297F8121AC080810A
S113085085588230E8F0C480D58082819381EC0190
S113086089819A81C816D90660F48C199D09CC91A6
S1130870D0E0C817D90728F48C1B9D0B281739071B
S113088038F04F5F5F4F13963696D6CF80E001C0A5
S113089081E0DF91CF911F910F91FF90DF90CF9076
S11308A008952091C2383091C338820F931F8093EA
S11308B0C2389093C33808950097D9F04115510573
S11308C0C1F026E0629FB0011124DC011496ED9181
S11308D0FC911597E60FF71F21E0208314968D9164
S11308E09C911597FC01E60FF71F4283538380E028
S11308F008958BE008952F923F924F925F926F92EA
S11309007F928F929F92AF92BF92CF92DF92EF929B
S1130910FF920F931F93CF93DF93009709F47DC346
S1130920EC01A12CB12C812C912C212CD12C33E065
S1130930C32E45E8642E56E8752E67E0362E72E025
S1130940472EE8E05E2EEA81FB8180819181881642
S1130950990608F0A5C17501EE0CFF1C0C811D81E0
S11309600E0D1F1DD8018C91843009F4A2C038F4F7
S1130970823001F108F049C0813059F08AC18538CC
S113098009F4C2C0863809F4F6C0873009F081C181
S113099037C1D8011296ED91FC91139780818E7125
S11309A009F069C14C928C819D81FC01EE0DFF1D03
S11309B0518261C1F8012181222329F10280F3814E
S11309C0E02D253020F081819281D8010EC0D8011C
S11309D014968D919C9115974181528184179507A6
S11309E069F04817590730F4019714968D939C9336
S11309F0159704C00196F801848395832150D8018A
S1130A0011962C9338C1F80131C1D80114962D9157
S1130A103C91159712968D919C911397DC01119638
S1130A204D915C9112972417350709F432C18E81D8
S1130A309F8142175307E0F4241B350BDC01AA0DF8
S1130A40BB1D8C9190E0058002C0959587950A9412
S1130A50E2F799272817390708F41BC184818823F2
S1130A6009F417C1F8013082EA81FB8124811AC09C
S1130A70FC01EA0DFB1D421B530B808190E04817DB
S1130A80590708F406C18281882331F0B401CE01EC
S1130A900E94E8038111FDC0E4E0D801EC93EA81EF
S1130AA0FB8122818C819D81FC01EE0DFF1D218340
S1130AB0E2C0D80114962D913C9115971296ED91B0
S1130AC0FC911397818192818217930708F4D7C010
S1130AD0EE81FF81EA0DFB1D821B930B208130E028
S1130AE02817390708F0AFC08281882331F0B40198
S1130AF0CE010E94E8038111CCC0F80181818823D2
S1130B0009F467C08150B6C0A881B9818085139665
S1130B108C93EC81FD81EE0DFF1D44815581A281F2
S1130B20B38111968D919C91129784179507C0F00B
S1130B30AE81BF81AA0DBB1D6C91262F30E01196AA
S1130B407C917F5F02C0359527957A95E2F7841BE7
S1130B50950B621B262F30E02817390708F497C03D
S1130B607082EA81FB8122818C819D81FC01EE0DE2
S1130B70FF1D218342C0D80114966D917C91159775
S1130B801296ED91FC911397218132812617370734
S1130B9058F411968C911197811102C0CC9277C0B0
S1130BA08150F801818373C0EE81FF81EA0DFB1D42
S1130BB08081482F50E091819F5F02C055954795F1
S1130BC09A95E2F7261B370B841B90E08217930754
S1130BD060F4D8016C92EA81FB8123818C819D8130
S1130BE0FC01EE0DFF1D218352C0F80181818111AA
S1130BF002C0C0824CC081508183222423943BC014
S1130C00D80114962D913C91159712968D919C9133
S1130C101397DC0111968D919C911297821793077B
S1130C2068F5281B390BAE81BF81AA0DBB1D8C91C1
S1130C3090E0058002C0959587950A94E2F799277C
S1130C402817390718F4F801C0821AC0D801119680
S1130C508C91119781110CC081E08C938C819D81C2
S1130C60FC01EE0DFF1D0280F381E02DC08211C056
S1130C708150F8018183DD24D3940BC0D801CC9238
S1130C808C819D81FC01EE0DFF1D118202C0222486
S1130C902394BFEF8B1A9B0AE3E0AE0EB11C53CE34
S1130CA0E881F981808187FF23C040E050E020E0A3
S1130CB030E0EA81FB81808191812817390798F41B
S1130CC0EC81FD81E40FF51FA281B3818C9180FD3D
S1130CD005C09081977F11F081608C932F5F3F4F07
S1130CE04A5F5F4FE6CFE881F98180818F77808307
S1130CF0D11007C0E881F98121106FC080818E7FF7
S1130D006EC0EA81FB8181858823A1F3E881F981A2
S1130D10808180688083EA81FB818185813051F7FD
S1130D2040E050E020E030E096E0D92EEA81FB81FB
S1130D306081718126173707E8F60C811D81FA015D
S1130D40EE0FFF1FE00FF11F8081982F977FA1F115
S1130D50853811F08330B1F5EE80FF80D701A40F00
S1130D60B51F1296BC90BB2039F180E090E0C12CF5
S1130D7086179707F8F428173907D1F0D89ED001C1
S1130D80D99EB00D1124A00FB11FAC91A43011F065
S1130D90A63871F4DC01AA0FBB1FA80FB91FAE0D52
S1130DA0BF1D1296AC91BA1203C0CB01CC24C394DC
S1130DB00196DECFC11006C00280F381E02D808150
S1130DC08E7F05C00280F381E02D80818160808365
S1130DD02F5F3F4F4D5F5F4FA9CF8081816080833C
S1130DE08091C2389091C338E881F98121813281A0
S1130DF0A90148535F4F4817590738F4821B930BD6
S1130E00AA24A394A3E0BA2E44C08217930710F037
S1130E1080E004C1821B930B0197893C9105C0F3C8
S1130E20EFCF885C9109E881F981218132812853CF
S1130E303F4F218332832381211196C024812223B1
S1130E4011F021502483E881F9812581222311F0B6
S1130E50215025838A809B80D40116962C91169765
S1130E6021111BC08A809B80F4012781211148C075
S1130E70EA81FB812381222361F020E030E0A0E0BD
S1130E80B0E0EA81FB8140815181A417B50708F4E1
S1130E906EC0893C910528F6BBCF08811981F80101
S1130EA024812111DFCFED90FC9060E070E040E000
S1130EB050E04E155F05F1F0EC81FD81E60FF71F60
S1130EC02081233011F0283081F424813581C280BF
S1130ED0D380D6011196CD90DC9012972C153D0548
S1130EE020F42F5F3F4F248335834F5F5F4F6A5F4A
S1130EF07F4FDFCFF4012681D80114962C93B2CF13
S1130F0008811981D80115962C912111B1CFE08067
S1130F10F18060E070E040E050E04E155F05F1F0D4
S1130F20EC81FD81E60FF71F2081233011F028307A
S1130F3081F424813581C280D380D6011196CD906D
S1130F40DC901297C216D30620F421503109248371
S1130F5035834F5F5F4F6A5F7F4FDFCFF401278197
S1130F60D80115962C9384CF2150238381CFA901D6
S1130F70440F551FEC81FD81E40FF51F6081653836
S1130F8009F047C06181662319F06150618341C053
S1130F90A0826C817D81FB01E40FF51F0280F38147
S1130FA0E02DB082EE81FF81E20FF31FD280DD20BD
S1130FB081F140E050E000E010E0EA81FB816081D3
S1130FC071810617170728F5EE81FF81E40FF51FDD
S1130FD06281D61219C0BA01660F771FEC81FD81B8
S1130FE04F01860E971EF401E280F380F701F08032
S1130FF0F0FE0AC0F401A082EC81FD81E60FF71F28
S11310000280F381E02DB0820F5F1F4F4D5F5F4F71
S1131010D4CF11962D5F3F4F34CF8BE0DF91CF912A
S11310201F910F91FF90EF90DF90CF90BF90AF9002
S11310309F908F907F906F905F904F903F902F90F4
S1131040089595E09093C638E091AC39F091AD39AC
S11310500188F289E02D309709F00994FFCFE091DF
S1131060AC39F091AD390388F489E02D309709F05B
S1131070099480E40C9421088091AC399091AD39A5
S11310800895CF938093AC399093AD398091C6384D
S1131090853039F0823028F08091C438882371F18A
S11310A040C01092C438C0E0A091AC39B091AD39C1
S11310B08C2F90E0880F991F1196ED91FC91129757
S11310C0E80FF91F0190F081E02D309729F317966E
S11310D02D913C911897D901A80FB91F8D919C911E
S11310E00995882329F08091C4388F5F8093C43890
S11310F0CF5F8091C4388823B9F2CECF82E0809349
S1131100C638E091AC39F091AD390784F089E02D0F
S1131110309711F0099508C085E08093C63881E0C6
S113112001C08F5F8093C4388091C438882331F024
S11311301092C43880E8CF910C942108CF9108957F
S11311401F93CF93DF93182FA091AC39B091AD3991
S113115015962D913C911697D0E0F901ED0FF11DF4
S1131160ED0FF11D80819181892B11F0DF5FF5CFA7
S113117053968D919C915497892B49F1812F90E03E
S1131180880F991FF901E80FF91F0190F081E02DF4
S11311903097E9F01B962D913C911C97D901A80F2B
S11311A0B91F8D919C91009791F06FE278E00995B9
S11311B0C82F811106C083E08093C6381092C538C9
S11311C003C082E08093C6381D1728F001C0C2E036
S11311D082E80E9421088C2FDF91CF911F910895FE
S11311E0E091AC39F091AD390584F685E02D099490
S11311F01F93CF93DF931F92CDB7DEB71982E0918F
S1131200AC39F091AD390588F689E02D309749F075
S113121082E08093C638CE010196099583E08093DD
S1131220C6388091C43881112CC01981111129C08C
S113123084E08093C638A091AC39B091AD398091E7
S1131240C53890E0880F991F1396ED91FC9114977F
S1131250E80FF91F0190F081E02D19962D913C9132
S11312601A97309781F0D901A80FB91F8D919C91DD
S1131270099581113EC08091C5388F5F8093C53830
S1131280DACF10E03DC01092C538F901E10FF11D2D
S1131290E10FF11D0190F081E02D309759F001909C
S11312A0F081E02D808187FF03C09C9194609C9322
S11312B01F5FEBCF1093C53882E08093C6385796F2
S11312C0ED91FC915897309711F0099505C08091E4
S11312D0C4388F5F8093C43810E08091C438882369
S11312E079F01092C4388091C53880640E94210836
S11312F007C08091C4388F5F8093C43813E0EDCF6A
S1131300812F0F90DF91CF911F9108958091CA385A
S11313109091CB38A091AE39B091AF39ED91FC9159
S113132011974081518125E0289FB001299F700DBC
S1131330112420E030E084179507A8F41496ED9169
S1131340FC911597E20FF31FE60FF71FE0812B5F67
S11313503F4FE0FD02C00196EECF8093CA389093D0
S1131360CB3880E008951092CA381092CB3881E0CF
S11313700895BC01E091AE39F091AF399C0183E04E
S1131380220F331F8A95E1F7A281B381A20FB31F05
S113139012969C91129713968C9190932A0680939F
S11313A02B06A281B381A20FB31F9C9111968C913D
S11313B0909326068093270695E0969FA001979F19
S11313C0500D1124A481B581A40FB51F13968C91DF
S11313D080931A06A481B581A40FB51F14968C912D
S11313E080931B06A481B581A40FB51F8C9181FD48
S11313F09C9384819581DC01A40FB51F8C918C7121
S113140069F4A281B381A20FB31F1696AC91A29581
S1131410AF70B0E0A05FB5468C9101C08FE38093BC
S11314201C06A281B381A20FB31F14968C918B3139
S113143010F48C5F01C08FE180930506A281B38113
S1131440A20FB31F17968C9180930106A281B381DA
S1131450A20FB31F15968C9182958F7080931906F5
S113146082819381FC01E20FF31F85818F7080617B
S1131470809302068091180683608093180681E8A1
S11314808093000681E08093080608953F924F926E
S11314905F926F927F928F929F92AF92BF92CF9200
S11314A0DF92EF92FF920F931F93CF93DF9380917C
S11314B0C938882309F448C1A091AE39B091AF3935
S11314C0C090B039D090B13900E010E060E070E035
S11314D0E12CF12C80E033243394D1E84D2E882480
S11314E08A94992493946D907C901197F3012081B0
S11314F03181E216F30608F023C1E60129913991FE
S11315006E011496ED91FC911597E60FF71F40813B
S11315104C7150E0569547955695479541155105A0
S113152021F041305105B9F002C11296CD91DC9100
S11315301397C00FD11F4E814F709F81491710F42C
S1131540941B01C090E002C0369527959A95E2F766
S113155021833283EDC012964D915C911397400F15
S1131560511FEA010F8002C0369527950A94E2F7CD
S113157021833283A380B4802115D2E03D0720F07B
S11315802F5F314091E005C0A401421B530B9A0127
S113159090E0E3015A80D0E45D1205C036952795AA
S11315A0992319F009C0992339F04FEFA416B40612
S11315B031F440828EE007C07724739401C0712C0B
S11315C02A30310590F41496ED91FC911597E60FAD
S11315D0F71F908197FF30821496ED91FC91159737
S11315E0E60FF71FA382B482A3C0E501CD2FDD2748
S11315F0C295CF709C2FA50144275F70652EA5016D
S1131600407F5527529542954F7045275F70452777
S11316105A2D5F70A52EC43030F09370D695C795BF
S1131620D695C7959C0F71103CC050E8550D5230AB
S113163010F456E007C053E005C0951768F49F5FA7
S11316402F5C3109203D3105C0F706C0CFE06C1690
S113165049F063942551310926313105B8F7DFE0AB
S11316606D120EC0951720F49F5FD5E06D2E08C053
S1131670CFE06C2E05C04F3049F04F5F2250310946
S113168023303105C0F74F3009F065C04FE06416D0
S113169081F1639445E05FC0992361F091502F5C20
S11316A03109203D3105C0F705C0662041F06A9438
S11316B02551310926313105C0F761100DC0992338
S11316C021F091505AE0652E07C0612C05C04423D7
S11316D041F041502250310923303105C0F7411106
S11316E010C06620E9F16A944AE023303105C8F657
S11316F008C059132FC02330310540F14FE0A42E08
S11317004FE0943018F0990F990F9950C0E14C9F15
S1131710A001112456294A29C92FD0E0DC2FCC2757
S1131720D295D07F4C2B5D2B4383548301C0FFCFD4
S1131730DFEFED1AFD0A6B5F7F4F085F1F4FD3CEBB
S113174092E09093C9380EC083E00CC04FE02FE0C4
S1131750A22ED7CF4FE02330310508F073CFD1CF7D
S113176040E0CFCFDF91CF911F910F91FF90EF9089
S1131770DF90CF90BF90AF909F908F907F906F90AD
S11317805F904F903F900895CF93DF930097E1F1DE
S1131790DC01ED91FC91A081B18160E070E040E05A
S11317A050E020E030E04A175B0799F0EC01EA8151
S11317B0FB81E60FF71FC081D1810280F381E02D08
S11317C0EC2BFD2B2E2B3F2B4F5F5F4F685F7F4F22
S11317D0EACF21153105D1F08091C938811108C0B3
S11317E0209322063093230681E08093C9380AC0EF
S11317F080912206822B8093220680912306832BDC
S11318008093230680E003C08BE001C082E0DF9177
S1131810CF910895009731F08093B0399093B13906
S113182080E008958BE008956115710591F10097AA
S113183081F12091C938222371F1243071F1809310
S1131840AE399093AF396093C7387093C83820ECA1
S113185020931806DC01ED91FC912281203421F4BF
S113186020911806206205C0203841F42091180602
S113187028622093180610921E0613C0213879F4AA
S11318802091180628622093180626E820931E0645
S113189008C08BE0089583E0089581E0089582E014
S11318A0089510920006DC01ED91FC918481803151
S11318B008F080E18093030681E080930B06809317
S11318C00A068093BA381092CA381092CB380E9414
S11318D0860981110BC084E08093C9388091CA388D
S11318E09091CB380E94B90980E0089582E08093FA
S11318F0C93808950097C9F0DC01ED91FC91119766
S1131900208131812617370790F045E0469F9001EA
S1131910479F300D11241496ED91FC911597E20F19
S1131920F31F81E0808380E008958BE0089582E0D6
S11319300895FC01892BD1F1A081B1818D919C91F5
S1131940119786179707A0F112969C910480F58150
S1131950E02D903459F485E0869FD001879FB00D27
S11319601124AE0FBF1F84E392E00DC09058923053
S113197080F485E0869FD001879FB00D1124AE0FBF
S1131980BF1F87E695E013968D939C93149780E090
S113199001C082E095E0969F9001979F300D11243D
S11319A0E20FF31F90819260908308958BE0089575
S11319B082E008951092000640911006509111069D
S11319C08091CA389091CB389C01220F331FE0914B
S11319D0B039F091B139E20FF31F4083518301967E
S11319E08093CA389093CB380E948609811109C02C
S11319F084E08093C9388091CA389091CB380C9494
S1131A00B909E091C738F091C8380994F894FFCF28
S1091A103F1C0B0503015D
S1131A16C8193800004F380000140C00004F380075
S1131A26007B040000C40B0000E238453858392115
S1131A3638140100140100140100140100140100FB
S1131A46140100140100140100140100140100140F
S1131A5601001401000C000400050014051401B56E
S1131A66385538E938000080000002000400000000
S1131A76010002000400000002000200040000400D
S1131A860000020004000020000002000400001010
S1131A960000020004000000200002000400000010
S1131AA61000020004000008000002000400000404
S1131AB6000002000400000200000200040000010D
S10F1AC600000200040C0080300001004D
S9030000FC
