S01C000057617465724C6576656C5F75325F6472697665722E737265631C
S11300000C943E000C945B000C945B000C945B001D
S11300100C945B000C945B000C9462000C945B00E9
S11300200C945B000C945B000C945B000C945B00E0
S11300300C945B000C945B000C945B000C945B00D0
S11300400C945B000C945B000C945B000C945B00C0
S11300500C944C020C945B000C945B000C945B00BD
S11300600C949A030C945B000C945B000C945B005E
S11300700C945B000C945B000C945B0011241FBE79
S1130080CFEFCDBFDFE3DEBF18E3A0E0B8E3EAEED5
S1130090F9E102C005900D92AE38B107D9F729E312
S11300A0AEE8B8E301C01D92AA34B207E1F70E949A
S11300B0EE000C94F00C0C9400000E94BF020E940D
S11300C07A0108951F920F920FB60F9211242F9365
S11300D03F934F935F936F937F938F939F93AF93CC
S11300E0BF93EF93FF930E941C0282E0809343012D
S11300F0FF91EF91BF91AF919F918F917F916F91FC
S11301005F914F913F912F910F900FBE0F901F90D1
S113011018958091AB388F5F8093AB380895FFCFEB
S11301200E94F30280939D380E94FD028091AA38B8
S11301308F5F8093AA3808950E94F30280939E38BB
S11301400E94FD028091AC388F5F8093AC38089593
S113015080918E38883010F010928E38E0918E386D
S1130160F0E0E156F74C80810E94F6028091A938B4
S11301708F5F8093A9380895CF93DF931092A738A7
S11301801092A83880E090E010928F380E943D02CF
S1130190807880938F38882359F0C091A738D09104
S11301A0A838CE010E943002C156D74C888307C0BC
S11301B0E091A738F091A838E156F74C108280916D
S11301C0A7389091A83801968093A7389093A838BF
S11301D088309105CCF2DF91CF9108950E945D00A3
S11301E0789488EA90E00E9411038CE990E00E94E0
S11301F01E0380E990E00E942B0389E890E00E94AE
S113020038038FE890E00E9445038FE890E00E9455
S1130210BE030E94ED0278940E94E001809191381F
S1130220813021F410929C380E94BC0080E395E751
S11302300197F1F7F1CFEFEEF8E3808182608083DC
S11302400895E0911838F09119388081882344F496
S1130250E091ED38F091EE388081846080830895D8
S113026081E0809391380895882324F481E0809379
S11302709038089586FD03C01092903808958F70C9
S11302808E5F8093903808950F931F93CF93DF93DD
S11302908DED98E30E94F40BC0E0D0E0BE0182E44F
S11302A098E30E94640CBE0182E498E30E94830CEC
S11302B02196C830D10591F705EB18E3C0E0A801F9
S11302C06C2F88E198E30E944604CF5F0B5F1F4FB9
S11302D0C830A9F7DF91CF911F910F910895E0E401
S11302E0F1E0918192FDFDCF90E080934A019093DB
S11302F04B01089580E20E946F01E0E3F4E0808105
S1130300877F8083E1E3F4E08081877F8083E4E377
S1130310F4E08081877F8083E5E3F4E08081877F58
S11303208083E7E1F4E08081877F8083E6E1F4E085
S11303308081877F8083E5E1F4E08081877F80830B
S1130340E4E1F4E08081877F8083EFEEF8E31082BC
S113035084E198E38183928380E198E383839483A7
S113036088E098E3858396838CE098E3878390877D
S113037080E098E38187928784E098E38387948779
S113038080E39AE08587968784E491E08787908B61
S113039084E391E0818B928B8BE191E0838B948B4E
S11303A0158A168A81E291E0878B908FCF010E9493
S11303B02B080E9426088093ED389093EE38089518
S11303C0E091ED38F091EE38808180FF0CC080E040
S11303D00E948A08811107C0E091ED38F091EE384F
S11303E080818E7F8083E091ED38F091EE388081BA
S11303F081FF21C00E94DA08811103C00E94E20833
S113040003C080E80E943401E091ED38F091EE38A9
S113041080818D7F8083E091ED38F091EE3880818A
S113042082FF09C081608083E091ED38F091EE385D
S113043080818B7F808308958091B4388F5F84316D
S113044018F48093B43808951092B438EFEEF8E3BA
S113045080818160808384E190E00E943B04089560
S11304609C01220F331F220F331F820F931FFC01A5
S1130470EB54F74C8181928108959C01220F331F24
S1130480820F931F880F991FE0911C38F0911D383B
S1130490E80FF91F808108951F920F920FB60F92F3
S11304A011242F933F934F935F936F937F938F9375
S11304B09F93AF93BF93EF93FF930E94C40CFF915C
S11304C0EF91BF91AF919F918F917F916F915F91C8
S11304D04F913F912F910F900FBE0F901F90189541
S11304E080E0089580E00895789480E00895E0E144
S11304F0F4E0808188608193E83184E0F807C9F7EB
S1130500E0E3F4E0808188608193E83384E0F807D5
S1130510C9F7E0E5F4E0808188608193E83584E000
S1130520F807C9F70895029A0A98E2E1F4E0808195
S1130530877F808380818F7780838081887F808399
S1130540A0E0B2E011968C911197806111968C9382
S11305501197019A0998E1E1F4E08081877F808313
S113056080818F7780838081887F808311968C91AE
S11305701197806111968C930E94CE0208950E9477
S113058077020E9472020E94C3030E9474020E94B6
S1130590D0030E9493020E9470020895E0E1F8E003
S11305A08EEE848781EE818710923A3910923B391E
S11305B010923C3910923D3910923E3910923F39D5
S11305C010923839109239391092423910924339C5
S11305D010924039109241390895E0E1F8E08185A4
S11305E081608187089580911D080895E0E1F8E015
S11305F08587828583608287089583E080931A08C3
S11306000895E0E1F8E08385806C838782E0828747
S11306100895E0913C39F0913D39309709F00995FE
S1130620089580933C3990933D390895E0913A3987
S1130630F0913B39309709F00995089580933A3940
S113064090933B390895E0913E39F0913F393097CA
S113065009F00995089580933E3990933F390895A0
S1130660E0913839F0913939309709F009950895B6
S113067080933839909339390895E0914239F09153
S11306804339309709F0099508958093423990933E
S113069043390895E0914039F0914139309709F098
S11306A00995089580911B0883FF03C00E943D03B0
S11306B0089580911B0882FF03C00E944A03089595
S11306C080911B0886FF10C080911B0880FF0CC01E
S11306D00E94230380911B0881FF2BC00E94090301
S11306E083E080931A08089580911B088823A4F45A
S11306F080911B0881FF0DC080911B0884FD06C0FA
S11307000E94090383E080931A0808950E9401035C
S113071008950E941603089580911B0886FF09C05E
S113072080911B0880FD05C00E94300382E0809305
S11307301A0808951F920F920FB60F9211242F9347
S11307403F934F935F936F937F938F939F93AF9355
S1130750BF93EF93FF930E945203FF91EF91BF91D8
S1130760AF919F918F917F916F915F914F913F9145
S11307702F910F900FBE0F901F90189580934039C2
S1130780909341390895E0E4F1E081818111FDCF36
S1130790E0E4F1E081E8808382E0828380E00895F0
S11307A080E00895CF92DF92FF920F931F93CF932F
S11307B0DF93EC01AE81BF81EB01CC0FDD1FC60FCF
S11307C0D71FCA0FDB1FFA80FC0144815581E6E084
S11307D0E69F9001E79F300D11248A01020F131F39
S11307E0F80122813381F90121813281F8010481E8
S11307F01581201B310BE8812E1B3109EC01EA81A4
S1130800FB8100811181FA0140E050E0401751075B
S113081039F146175707F9F012968C911297F8128E
S11308201AC0808185588230E8F0C480D5808281E6
S11308309381EC0189819A81C816D90660F48C19D8
S11308409D09CC91D0E0C817D90728F48C1B9D0BC7
S11308502817390738F04F5F5F4F13963696D6CF77
S113086080E001C081E0DF91CF911F910F91FF9053
S1130870DF90CF9008952091923830919338820F71
S1130880931F809392389093933808950097D9F0EA
S113089041155105C1F026E0629FB0011124DC012D
S11308A01496ED91FC911597E60FF71F21E0208334
S11308B014968D919C911597FC01E60FF71F4283C6
S11308C0538380E008958BE008952F923F924F92D6
S11308D05F926F927F928F929F92AF92BF92CF92CC
S11308E0DF92EF92FF920F931F93CF93DF930097C2
S11308F009F47DC3EC01A12CB12C812C912C212C69
S1130900D12C33E0C32E45E8642E56E8752E67E0FB
S1130910362E72E0472EE8E05E2EEA81FB8180816C
S113092091818816990608F0A5C17501EE0CFF1C8B
S11309300C811D810E0D1F1DD8018C91843009F48A
S1130940A2C038F4823001F108F049C0813059F076
S11309508AC1853809F4C2C0863809F4F6C08730E4
S113096009F081C137C1D8011296ED91FC9113971A
S113097080818E7109F069C14C928C819D81FC014A
S1130980EE0DFF1D518261C1F8012181222329F15D
S11309900280F381E02D253020F081819281D801FD
S11309A00EC0D80114968D919C9115974181528166
S11309B08417950769F04817590730F4019714967E
S11309C08D939C93159704C00196F80184839583B5
S11309D02150D80111962C9338C1F80131C1D801A6
S11309E014962D913C91159712968D919C91139785
S11309F0DC0111964D915C9112972417350709F487
S1130A0032C18E819F8142175307E0F4241B350BBA
S1130A10DC01AA0DBB1D8C9190E0058002C0959568
S1130A2087950A94E2F799272817390708F41BC118
S1130A308481882309F417C1F8013082EA81FB819B
S1130A4024811AC0FC01EA0DFB1D421B530B80815B
S1130A5090E04817590708F406C18281882331F0D1
S1130A60B401CE010E94D2038111FDC0E4E0D8019B
S1130A70EC93EA81FB8122818C819D81FC01EE0D46
S1130A80FF1D2183E2C0D80114962D913C91159746
S1130A901296ED91FC9113978181928182179307AD
S1130AA008F4D7C0EE81FF81EA0DFB1D821B930B76
S1130AB0208130E02817390708F0AFC082818823ED
S1130AC031F0B401CE010E94D2038111CCC0F801EF
S1130AD08181882309F467C08150B6C0A881B98197
S1130AE0808513968C93EC81FD81EE0DFF1D44816E
S1130AF05581A281B38111968D919C91129784178F
S1130B009507C0F0AE81BF81AA0DBB1D6C91262F45
S1130B1030E011967C917F5F02C0359527957A95D8
S1130B20E2F7841B950B621B262F30E02817390748
S1130B3008F497C07082EA81FB8122818C819D81B7
S1130B40FC01EE0DFF1D218342C0D80114966D9166
S1130B507C9115971296ED91FC9113972181328126
S1130B602617370758F411968C911197811102C0FA
S1130B70CC9277C08150F801818373C0EE81FF81EC
S1130B80EA0DFB1D8081482F50E091819F5F02C0D8
S1130B90559547959A95E2F7261B370B841B90E0F1
S1130BA08217930760F4D8016C92EA81FB81238158
S1130BB08C819D81FC01EE0DFF1D218352C0F80143
S1130BC08181811102C0C0824CC081508183222462
S1130BD023943BC0D80114962D913C9115971296FD
S1130BE08D919C911397DC0111968D919C91129794
S1130BF08217930768F5281B390BAE81BF81AA0DB4
S1130C00BB1D8C9190E0058002C0959587950A9450
S1130C10E2F799272817390718F4F801C0821AC097
S1130C20D80111968C91119781110CC081E08C939D
S1130C308C819D81FC01EE0DFF1D0280F381E02D6E
S1130C40C08211C08150F8018183DD24D3940BC08C
S1130C50D801CC928C819D81FC01EE0DFF1D118287
S1130C6002C022242394BFEF8B1A9B0AE3E0AE0E4A
S1130C70B11C53CEE881F981808187FF23C040E015
S1130C8050E020E030E0EA81FB81808191812817E7
S1130C90390798F4EC81FD81E40FF51FA281B3813B
S1130CA08C9180FD05C09081977F11F081608C93B9
S1130CB02F5F3F4F4A5F5F4FE6CFE881F981808124
S1130CC08F778083D11007C0E881F98121106FC02C
S1130CD080818E7F6EC0EA81FB8181858823A1F3A8
S1130CE0E881F981808180688083EA81FB81818544
S1130CF0813051F740E050E020E030E096E0D92E1A
S1130D00EA81FB816081718126173707E8F60C813F
S1130D101D81FA01EE0FFF1FE00FF11F8081982F54
S1130D20977FA1F1853811F08330B1F5EE80FF8013
S1130D30D701A40FB51F1296BC90BB2039F180E0F7
S1130D4090E0C12C86179707F8F428173907D1F0DB
S1130D50D89ED001D99EB00D1124A00FB11FAC9123
S1130D60A43011F0A63871F4DC01AA0FBB1FA80F40
S1130D70B91FAE0DBF1D1296AC91BA1203C0CB01C0
S1130D80CC24C3940196DECFC11006C00280F38147
S1130D90E02D80818E7F05C00280F381E02D80816B
S1130DA0816080832F5F3F4F4D5F5F4FA9CF80816C
S1130DB0816080838091923890919338E881F981A1
S1130DC021813281A90148535F4F4817590738F4EC
S1130DD0821B930BAA24A394A3E0BA2E44C08217C7
S1130DE0930710F080E004C1821B930B0197893CA8
S1130DF09105C0F3EFCF885C9109E881F9812181E5
S1130E00328128533F4F218332832381211196C09D
S1130E102481222311F021502483E881F981258142
S1130E20222311F0215025838A809B80D4011696B9
S1130E302C91169721111BC08A809B80F401278175
S1130E40211148C0EA81FB812381222361F020E043
S1130E5030E0A0E0B0E0EA81FB8140815181A41739
S1130E60B50708F46EC0893C910528F6BBCF08810C
S1130E701981F80124812111DFCFED90FC9060E00D
S1130E8070E040E050E04E155F05F1F0EC81FD812B
S1130E90E60FF71F2081233011F0283081F42481DC
S1130EA03581C280D380D6011196CD90DC90129703
S1130EB02C153D0520F42F5F3F4F248335834F5F6E
S1130EC05F4F6A5F7F4FDFCFF4012681D80114960C
S1130ED02C93B2CF08811981D80115962C91211138
S1130EE0B1CFE080F18060E070E040E050E04E156A
S1130EF05F05F1F0EC81FD81E60FF71F20812330BF
S1130F0011F0283081F424813581C280D380D60148
S1130F101196CD90DC901297C216D30620F421507E
S1130F203109248335834F5F5F4F6A5F7F4FDFCF83
S1130F30F4012781D80115962C9384CF2150238363
S1130F4081CFA901440F551FEC81FD81E40FF51FEA
S1130F506081653809F047C06181662319F06150EA
S1130F60618341C0A0826C817D81FB01E40FF51F88
S1130F700280F381E02DB082EE81FF81E20FF31F46
S1130F80D280DD2081F140E050E000E010E0EA8111
S1130F90FB81608171810617170728F5EE81FF81B7
S1130FA0E40FF51F6281D61219C0BA01660F771FCC
S1130FB0EC81FD814F01860E971EF401E280F380DF
S1130FC0F701F080F0FE0AC0F401A082EC81FD81FB
S1130FD0E60FF71F0280F381E02DB0820F5F1F4FF1
S1130FE04D5F5F4FD4CF11962D5F3F4F34CF8BE0D1
S1130FF0DF91CF911F910F91FF90EF90DF90CF90F1
S1131000BF90AF909F908F907F906F905F904F9024
S11310103F902F90089595E090939638E09144394D
S1131020F09145390188F289E02D309709F009944F
S1131030FFCFE0914439F09145390388F489E02DDC
S1131040309709F0099480E40C940B08809144399A
S1131050909145390895CF938093443990934539BD
S113106080919638853039F0823028F08091943818
S1131070882371F140C010929438C0E0A0914439A3
S1131080B09145398C2F90E0880F991F1196ED91FE
S1131090FC911297E80FF91F0190F081E02D309731
S11310A029F317962D913C911897D901A80FB91FD0
S11310B08D919C910995882329F0809194388F5FB4
S11310C080939438CF5F809194388823B9F2CECF3F
S11310D082E080939638E0914439F0914539078451
S11310E0F089E02D309711F0099508C085E08093D0
S11310F0963881E001C08F5F809394388091943852
S1131100882331F01092943880E8CF910C940B0826
S1131110CF9108951F93CF93DF93182FA091443953
S1131120B091453915962D913C911697D0E0F9016F
S1131130ED0FF11DED0FF11D80819181892B11F0CF
S1131140DF5FF5CF53968D919C915497892B49F18C
S1131150812F90E0880F991FF901E80FF91F019082
S1131160F081E02D3097E9F01B962D913C911C976E
S1131170D901A80FB91F8D919C91009791F069E155
S113118078E00995C82F811106C083E080939638D2
S11311901092953803C082E0809396381D1728F08A
S11311A001C0C2E082E80E940B088C2FDF91CF912E
S11311B01F910895E0914439F09145390584F685ED
S11311C0E02D09941F93CF93DF931F92CDB7DEB721
S11311D01982E0914439F09145390588F689E02D6A
S11311E0309749F082E080939638CE0101960995B4
S11311F083E0809396388091943881112CC01981B2
S1131200111129C084E080939638A0914439B0919B
S113121045398091953890E0880F991F1396ED9188
S1131220FC911497E80FF91F0190F081E02D1996B5
S11312302D913C911A97309781F0D901A80FB91FCD
S11312408D919C91099581113EC0809195388F5F55
S113125080939538DACF10E03DC010929538F901AB
S1131260E10FF11DE10FF11D0190F081E02D3097A8
S113127059F00190F081E02D808187FF03C09C919B
S113128094609C931F5FEBCF1093953882E080931A
S113129096385796ED91FC915897309711F009952F
S11312A005C0809194388F5F8093943810E08091CA
S11312B09438882379F0109294388091953880641A
S11312C00E940B0807C0809194388F5F80939438F4
S11312D013E0EDCF812F0F90DF91CF911F910895EF
S11312E080919A3890919B38A0914639B0914739B2
S11312F0ED91FC9111974081518125E0289FB00127
S1131300299F700D112420E030E084179507A8F47C
S11313101496ED91FC911597E20FF31FE60FF71F5A
S1131320E0812B5F3F4FE0FD02C00196EECF80933A
S11313309A3890939B3880E0089510929A381092CE
S11313409B3881E00895BC01E0914639F09147391A
S11313509C0183E0220F331F8A95E1F7A281B381B8
S1131360A20FB31F12969C91129713968C9190938F
S11313702A0680932B06A281B381A20FB31F9C91EE
S113138011968C91909326068093270695E0969F5C
S1131390A001979F500D1124A481B581A40FB51FFE
S11313A013968C9180931A06A481B581A40FB51F5E
S11313B014968C9180931B06A481B581A40FB51F4C
S11313C08C9181FD9C9384819581DC01A40FB51FD0
S11313D08C918C7169F4A281B381A20FB31F16960C
S11313E0AC91A295AF70B0E0AC51B6468C9101C0FF
S11313F08FE380931C06A281B381A20FB31F1496BE
S11314008C918B3110F48C5F01C08FE180930506C1
S1131410A281B381A20FB31F17968C91809301060A
S1131420A281B381A20FB31F15968C9182958F7000
S11314308093190682819381FC01E20FF31F858159
S11314408F70806180930206809118068360809378
S1131450180681E88093000681E0809308060895C9
S11314603F924F925F926F927F928F929F92AF9230
S1131470BF92CF92DF92EF92FF920F931F93CF937D
S1131480DF9380919938882309F448C1A0914639A3
S1131490B0914739C0904839D090493900E010E004
S11314A060E070E0E12CF12C80E033243394D1E847
S11314B04D2E88248A94992493946D907C9011974E
S11314C0F30120813181E216F30608F023C1E6011D
S11314D0299139916E011496ED91FC911597E60FBF
S11314E0F71F40814C7150E05695479556954795A6
S11314F04115510521F041305105B9F002C1129650
S1131500CD91DC911397C00FD11F4E814F709F81F5
S1131510491710F4941B01C090E002C0369527953A
S11315209A95E2F721833283EDC012964D915C9136
S11315301397400F511FEA010F8002C0369527957B
S11315400A94E2F721833283A380B4802115D2E088
S11315503D0720F02F5F314091E005C0A401421BFC
S1131560530B9A0190E0E3015A80D0E45D1205C068
S113157036952795992319F009C0992339F04FEF2F
S1131580A416B40631F440828EE007C07724739425
S113159001C0712C2A30310590F41496ED91FC9120
S11315A01597E60FF71F908197FF30821496ED91FF
S11315B0FC911597E60FF71FA382B482A3C0E5013F
S11315C0CD2FDD27C295CF709C2FA50144275F70D6
S11315D0652EA501407F5527529542954F704527AA
S11315E05F7045275A2D5F70A52EC43030F093707C
S11315F0D695C795D695C7959C0F71103CC050E8F9
S1131600550D523010F456E007C053E005C095174D
S113161068F49F5F2F5C3109203D3105C0F706C097
S1131620CFE06C1649F06394255131092631310518
S1131630B8F7DFE06D120EC0951720F49F5FD5E078
S11316406D2E08C0CFE06C2E05C04F3049F04F5FBF
S11316502250310923303105C0F74F3009F065C0FD
S11316604FE0641681F1639445E05FC0992361F013
S113167091502F5C3109203D3105C0F705C066202B
S113168041F06A942551310926313105C0F76110C2
S11316900DC0992321F091505AE0652E07C0612CAA
S11316A005C0442341F04150225031092330310513
S11316B0C0F7411110C06620E9F16A944AE0233072
S11316C03105C8F608C059132FC02330310540F145
S11316D04FE0A42E4FE0943018F0990F990F9950D1
S11316E0C0E14C9FA001112456294A29C92FD0E0FA
S11316F0DC2FCC27D295D07F4C2B5D2B4383548396
S113170001C0FFCFDFEFED1AFD0A6B5F7F4F085F6B
S11317101F4FD3CE92E0909399380EC083E00CC053
S11317204FE02FE0A22ED7CF4FE02330310508F051
S113173073CFD1CF40E0CFCFDF91CF911F910F91E5
S1131740FF90EF90DF90CF90BF90AF909F908F90DD
S11317507F906F905F904F903F900895CF93DF9369
S11317600097E1F1DC01ED91FC91A081B18160E091
S113177070E040E050E020E030E04A175B0799F069
S1131780EC01EA81FB81E60FF71FC081D181028061
S1131790F381E02DEC2BFD2B2E2B3F2B4F5F5F4F66
S11317A0685F7F4FEACF21153105D1F080919938D8
S11317B0811108C0209322063093230681E0809390
S11317C099380AC080912206822B80932206809148
S11317D02306832B8093230680E003C08BE001C0A3
S11317E082E0DF91CF910895009731F080934839DA
S11317F09093493980E008958BE00895611571054F
S113180091F1009781F120919938222371F12430CC
S113181071F1809346399093473960939738709368
S1131820983820EC20931806DC01ED91FC9122817C
S1131830203421F420911806206205C0203841F498
S11318402091180628622093180610921E0613C0D1
S1131850213879F42091180628622093180626E886
S113186020931E0608C08BE0089583E0089581E06C
S1131870089582E0089510920006DC01ED91FC9138
S11318808481803108F080E18093030681E08093B5
S11318900B0680930A0680938D3810929A38109222
S11318A09B380E94700981110BC084E080939938A1
S11318B080919A3890919B380E94A30980E0089502
S11318C082E08093993808950097C9F0DC01ED9186
S11318D0FC911197208131812617370790F045E05C
S11318E0469F9001479F300D11241496ED91FC9171
S11318F01597E20FF31F81E0808380E008958BE069
S1131900089582E00895FC01892BD1F1A081B18171
S11319108D919C91119786179707A0F112969C912F
S11319200480F581E02D903459F485E0869FD00140
S1131930879FB00D1124AE0FBF1F84E392E00DC04A
S11319409058923080F485E0869FD001879FB00D37
S11319501124AE0FBF1F87E695E013968D939C93D9
S1131960149780E001C082E095E0969F9001979FD4
S1131970300D1124E20FF31F90819260908308953B
S11319808BE0089582E008951092000640911006BD
S11319905091110680919A3890919B389C01220FA6
S11319A0331FE0914839F0914939E20FF31F408326
S11319B05183019680939A3890939B380E947009C2
S11319C0811109C084E08093993880919A3890916C
S11319D09B380C94A309E0919738F09198380994B6
S10719E0F894FFCFA5
S10919E43F1C0B0503018A
S11319EA1838000042380000FE0B0000423800009C
S11319FA65040000AE0B0000AE38383808392038C8
S1131A0A140100140100140100140100140100144B
S1131A1A0100140100140100080004000500140563
S1131A2A140188384838B538000020000002000440
S1131A3A000010000002000400000020000200045C
S1131A4A0000001000020004000008000002000464
S1131A5A0000040000020004000002000002000466
S1111A6A0000010000020004080080300001AA
S9030000FC
